:040000008031AB2878
:100008007E14803120007F08F9000B198B1E83288D
:10001800FA3095020B110130FA070030FB3D003031
:10002800FC3D0030FD3DFF307A05F500FF307B05D3
:10003800F6007F307C05F70000307D05F8000030C1
:100048007802031D312849307702031D31283E30DC
:100058007602031D312800307502031C4B2800303E
:10006800F5003E30F6004930F7000030F80075081A
:10007800FA027608FB3B7708FC3B7808FD3B00302A
:10008800FA060030FB068030FC060030FD065B08EF
:10009800803AF50080307502031D542801305A0259
:1000A8000318592822008C155E28FF302000DA0733
:1000B800FF30DB3D20005708803AF5006F08803A92
:1000C8007502031D69286E085602031C6E2822005B
:1000D8000C13702822000C1701302000D6070030BE
:1000E800D73D5708803AF50080307502031D7E28F9
:1000F80014305602031C83282000D601D7018B1820
:100108000B1E90288B1022008C1120005908DB014F
:10011800DB075808DA01DA0720006D086C040319B8
:10012800A628EC01ED010430F0000030F100F201E6
:10013800F20A8E315B2670082100BE007108BF00EC
:10014800C001C10179082000FF007E10090080313C
:10015800AD28FA01FB01FC01FD0156308400003096
:10016800850016308D31FA258031A03084000030AA
:1001780085004F308D31FA2580318D31F62580315B
:10018800EC008D31F7258031ED008D31F825803177
:10019800EE008D31F925EF007E1020008031D42843
:1001A80000302000A3000030A200FA30A100003087
:1001B800A00086317726803120002308D00022084D
:1001C800CF002108CE002008CD000030A300003069
:1001D800A200FA30A1000030A000863177268031D5
:1001E80020002308CA002208C9002108C8002008E6
:1001F800C700C501C601D50121000D080039E13845
:100208008D000C08003920388C00C03023008D0583
:1002180000308C058C1621009512151215178B16B7
:1002280095158E31112680318E31002680310330AC
:100238002000C4000830C3007830C200C20B222955
:10024800C30B2229C40B22298631192680310B16AB
:100258008B172000D201D301CB01CC013230C20070
:100268004208D1000030AF000030AE000F30AD00C2
:10027800FF30AC00210041082000A3002100400805
:100288002000A20021003F082000A10021003E0814
:100298002000A0000030A7000030A6000030A50014
:1002A8006430A4008E31BF26803120002308B300BB
:1002B8002208B2002108B1002008B00087317E274B
:1002C800803120002D08D301D3072C08D201D20792
:1002D8005308B001B0075208AF01AF074030B10072
:1002E8000130B2003230B3000030B4008F3126271D
:1002F800803120003008D901D9072F08D801D80744
:100308005308B001B0075208AF01AF070030B10081
:100318000030B2008F31AF27803120003008EF0164
:10032800EF072F08EE01EE075008A3004F08A200C0
:100338004E08A1004D08A0008631D126803120004A
:10034800210820040319B82AD501043055020318DE
:10035800B82AD40155088331B42380312000C20063
:100368004208D400D408031D5C2A0030A3000030E2
:10037800A200FA30A1000030A00086317726803133
:1003880020002308D0002208CF002108CE00200832
:10039800CD008E018E313126803117302000AF001C
:1003A8008830B0005308B201B2075208B101B10752
:1003B8005108C200C3014208B3004308B400CA3060
:1003C8008231E1228031CA308E3197268031210076
:1003D800B31F3E2AFF302000A000FF30A1002100FB
:1003E80033082000A301A307210032082000A2013E
:1003F800A2078E3179268031200021082100B3011F
:10040800B307200020082100B201B2070A302000FB
:10041800AF008830B0000A30A6000030A7002100E5
:1004280033082000A901A907210032082000A801EB
:10043800A80787312A27803120002708B201B20790
:100448002608B101B1070A30A0000030A100210040
:1004580033082000A301A307210032082000A201CD
:10046800A2078F316727803120002108B401B40723
:100478002008512A1E302000AF008830B00021002B
:1004880033082000B201B207210032082000B10170
:10049800B1074C08B401B4074B08B301B307DA300D
:1004A8008231E1228031DA308E3197268031A22ADA
:1004B80020005408053A031D852A8E3131268031E3
:1004C80000302000A3000030A200FA30A100003064
:1004D800A00086317726803120002308D00022082A
:1004E800CF002108CE002008CD000330C20042080A
:1004F800A00055088E311F2680312000C300430814
:100508009C2A0030A3000030A200FA30A10000307D
:10051800A00086317726803120002308D0002208E9
:10052800CF002108CE002008CD005408C2004208A0
:10053800D1000130CB070030CC3DB82A053020006F
:10054800C4000F30C300F430C200C20BA92AC30B89
:10055800A92AC40BA92A01302000C2004208D507E5
:1005680004305502031CAD294A08A3004908A2001B
:100578004808A1004708A0008631D1268031200014
:1005880021082004031936290130EC000030ED0061
:100598000030A3000030A200FA30A1000030A00013
:1005A80086317726803120002308CA002208C90036
:1005B8002108C8002008C70036292000C0003130B3
:1005C800B5003508B9003008B6002F08B500AF0AE5
:1005D8000319B00A35088400360885000008B700FA
:1005E8003708C100C1080319AF2B4108253A031980
:1005F800092B4108B50040088600870135088100AD
:100608000130B5003508C007E72ABA013008B6003E
:100618002F08B500AF0A0319B00A35088400360858
:1006280085000008C100003A0319AF2B643A03198A
:10063800212B0D3A0319212BE72A39088600870157
:10064800403FBC00413FBD000230B5003508B90746
:10065800BD1F372B0330B5003508BA04BC09BD09E6
:10066800BC0A0319BD0AC101C10A4108053A0319A8
:100678005C2B4108B500B601B535B60D003035071D
:1006880084008830363D8500003FB700013FB80040
:1006980038083D02031D522B37083C02031C5C2B13
:1006A8000130B5003508C1074108053A031D3D2B47
:1006B8003A08033903196B2B2D30B5004008860022
:1006C8008701350881000130B5003508C0074108A9
:1006D800B5003508BB00FF30B5003508BB073B083F
:1006E800FF3A0319E72A0A30A8000030A9003B089E
:1006F800B500B601B535B60D003035078400883031
:10070800363D8500003FA000013FA1003D08A30140
:10071800A3073C08A201A2078E31EF2682312000F0
:100728002108AB01AB072008AA01AA078731D12706
:10073800823120002808303EB7003708C100410840
:10074800B500400886008701350881000130B500F2
:100758003508C0076F2B4008860087018101080013
:100768002000B000AE01AF013008853191258331FA
:100778002000AB002B08AF00AF08031D212CB101EE
:10078800B2013208803AAB0080302B02031DCE2B19
:10079800053031020318F32B20003008AB002B087A
:1007A800A0003108EA3E8531032583312000AC00E2
:1007B8002C08AF002F080319E42B3108013E08006C
:1007C8000130B1070030B23D3208803AAB008030CA
:1007D8002B02031DF12B05303102031CD02B200006
:1007E800B101B2013208803AAB0080302B02031D00
:1007F800FF2B043031020318192C20003108EA3E7F
:10080800860087010108AB002B08AE070130B1074D
:100818000030B23D3208803AAB0080302B02031D15
:10082800172C04303102031C012C21006E08200013
:100838002E060319212C0530080021006A08200023
:10084800AB00AC012B08AC00AB013035AA3E8600EA
:1008580087012B08C03F2C08C13F21006B082000EE
:10086800AB00AC013035AA3E860087012B08810415
:1008780041312C08810421006C082000AB00AC0138
:100888002B08AC00AB013035B23E860087012B083F
:10089800C03F2C08C13F21006D082000AB00AC010F
:1008A8003035B23E860087012B08810441312C087F
:1008B80081042F0808002000A3002308A1000730A6
:1008C800A136890B642C21080139A200A20DA20DC2
:1008D800A20D22000D0820002206F7392206220068
:1008E8008D0020002308A1000630A136890B792C41
:1008F80021080139A200A20DA20D22000D08200036
:100908002206FB39220622008D0020002308A100C0
:100918000530A136890B8D2C21080139A200A20DC2
:1009280022000D0820002206FD39220622008D0033
:1009380020002308A1000430A136890BA02C21082F
:100948000139A200A20E22000D0820002206EF396C
:10095800220622008D008E310726843120002308CC
:10096800A1000330A136890BB62C21080139A20059
:10097800A20DA20DA20D22000D0820002206F739B3
:10098800220622008D0020002308A1000230A13693
:10099800890BCB2C21080139A200A20DA20D22003F
:1009A8000D0820002206FB39220622008D002000B7
:1009B80023360139A100A10D22000D0820002106CF
:1009C800FD39210622008D00200023080139A100ED
:1009D800A10E22000D0820002106EF392106220071
:1009E8008D008E31072684310B302000A200623042
:1009F800A100A10BFD2CA20BFD2C0000080020007B
:100A0800A300A501182D0130142D0230142D043037
:100A1800142D0830142D1030142D2030142D403092
:100A2800A9000030AA00222D200884000730040203
:100A38000318222D88310435323E8200A601083081
:100A480026020318852D0030A7000130A8000E08E3
:100A58002905A100A2012A082206031D352D29080F
:100A6800210603193D2DFF30A707FF30A83DA81F19
:100A78002B2D4730A100A10B3F2D003220000E087E
:100A88002905A100A2012A082206031D4D2D2908C7
:100A98002106031D542DA401A40A22008C17582DE9
:100AA8002000A40122008C1300302000A700013090
:100AB800A800642DFF30A707FF30A83DA81B702DA4
:100AC8000E082905A100A2012A082206031D6E2D81
:100AD8002908210603195E2DA81F762D22008C13E4
:100AE8000430080003102000A50D2408A1002108E7
:100AF800A5040130A1002108A60708302602031C1E
:100B0800272D22008C1320002508A1002308860029
:100B1800870121088100003008002000A200A52DCF
:100B28000130A12D0230A12D0430A12D0830A12DB6
:100B38001030A12D2030A12D4030A5000030A60096
:100B4800AF2D22088400073004020318AF2D883126
:100B58000435243E82002509A000200821008E05C6
:100B680020002509A00020088E053430A100F130AE
:100B7800A000A00BBD2DA10BBD2D00322000250823
:100B8800A000200821008E0420002508A0002008CD
:100B98008E046A30A000A00BCF2D000020000E08A4
:100BA8002505A000A10126082106031DDD2D250825
:100BB80020060319172E8030A3000030A400EA2D68
:100BC800FF30A307FF30A43DA41BF62D0E08250512
:100BD800A000A10126082106031DF42D25082006E2
:100BE800031DE42DA41FFA2D023008008030A30055
:100BF8000030A400052EFF30A307FF30A43DA41B3E
:100C0800112E0E082505A000A10126082106031DA6
:100C18000F2E250820060319FF2DA41F152E0330BB
:100C28000800003008000130080022000C108C1069
:100C38000C11D0302000A500C930A400A40B222E2E
:100C4800A50B222E003222008D110D118D140D16C8
:100C58008E310726863134302000A500F130A400FB
:100C6800A40B342EA50B342E003222008D110D1149
:100C78008D140D168E3107268631EF302000A40022
:100C88000032A40B442E0032003222008D110D11C7
:100C98008D140D168E310726863122008D110D1107
:100CA8008D140D128E3107268631283084315F2449
:100CB80086310B3084315F248631013084315F24E2
:100CC8008631043084315F24863168302000A500E5
:100CD800E430A400A40B6E2EA50B6E2E00000F307E
:100CE80084315F24080000302000AB000030AA00E7
:100CF8000030A9000030A80020087A07A4002108C5
:100D08007B3DA50022087C3DA60023087D3DA70069
:100D18002708AB002608AA002508A9002408A8006F
:100D2800FF302805A400FF302905A5007F302A05DB
:100D3800A60000302B05A70000302702031DAE2EA9
:100D480049302602031DAE2E3E302502031DAE2E6D
:100D580001302402031CC82E0030A4003E30A50038
:100D68004930A6000030A7002408A8022508A93B9E
:100D78002608AA3B2708AB3B0030A8060030A90686
:100D88008030AA060030AB062B08A3002A08A20070
:100D98002908A1002808A0000800FF307A052000D3
:100DA800A400FF307B05A5007F307C05A60000303D
:100DB8007D05A700FF302005A800FF302105A90008
:100DC8007F302205AA0000302305AB0027082B023C
:100DD800031DF82E26082A02031DF82E25082902CD
:100DE800031DF82E240828020318272F00307A053F
:100DF800A40000307B05A50080307C05A6000030EB
:100E08007D05A70000302005A80000302105A900B5
:100E180080302205AA0000302305AB0027082B06E6
:100E2800031D202F26082A06031D202F2508290622
:100E3800031D202F24082806031D272F0130A0009A
:100E48000030A1000800A001A10108002000AC01A9
:100E5800A71F352FA609A709A60A0319A70AAC01D7
:100E6800AC0AA91F402FA809A909A80A0319A90AA9
:100E78000130AA002A08AC06AD01AE0127082604F5
:100E880003196F2FAB01AB0AA71B542F0130A635EE
:100E9800A70D890B4B2F0130AA002A08AB07482F52
:100EA8000130AD35AE0D890B552F27082902031DDA
:100EB8005F2F26082802031C662F2608A802270889
:100EC800A93B2D140130A736A60C890B672F0130DA
:100ED800AB02031D542F2C080319772FAD09AE0957
:100EE800AD0A0319AE0A2E08A701A7072D08A60107
:100EF800A607080000302000B8000030B700003016
:100F0800B6000030B5002F082E042D042C04031958
:100F1800C82FB901B90AAF1B9D2F0130AC35AD0DF3
:100F2800AE0DAF0D890B922F0130B4003408B9070C
:100F38008F2F0130B535B60DB70DB80D890B9E2F23
:100F48002F083302031DB22F2E083202031DB22FC1
:100F58002D083102031DB22F2C083002031CBD2FAF
:100F68002C08B0022D08B13B2E08B23B2F08B33B2A
:100F780035140130AF36AE0CAD0CAC0C890BBE2F5E
:100F88000130B902031D9D2F3808AF003708AE00A5
:100F98003608AD003508AC000800200029082804F0
:100FA8000319F92FAD01AD0AA91BE42F0130A835AB
:100FB800A90D890BDB2F0130AC002C08AD07D82F09
:100FC80029082B02031DEA2F28082A02031CF02FE8
:100FD8002808AA022908AB3B0130A936A80C890BBE
:100FE800F12F0130AD02031DE42F2B08A901A90739
:100FF8002A08A801A8070800013400340A3400347C
:1010080064340034E83403341034273454343A3424
:10101800203420342D34253464342E34253464347B
:101028000D340A34003425346434203425346434CF
:101038000A340034253464342034253464340034CC
:101048008531942D8531962D8531982D85319A2DB0
:1010580085319C2D85319E2D8531A02D8531072D1B
:101068008531092D85310B2D85310D2D85310F2DBC
:081078008531112D8531132D86
:101BEC000134003413340034640080010131890B5A
:101BFC00FB2D0034FC30210099057830990499179D
:101C0C00080022000C1585302000A000A00B0C2E23
:101C1C0022000C1108000F3021009F04FC309E059F
:101C2C001E119D139E171E088F3960389E001D14BF
:101C3C0008002000A300A201231C282E2008A100CC
:101C4C002108A2070310A00D0310A30CA308031D69
:101C5C00222E2208080022000C10013084315F244F
:101C6C008E3122000C1415302000A500C630A400C3
:101C7C00A40B3E2EA50B3E2E000008002000A60053
:101C8C0022000C1020002608803E84315F248E3107
:101C9C0022000C1415302000A500C630A400A40BA3
:101CAC00552EA50B552E000008007008F300F30DFF
:101CBC00F30D21001D087306833973069D009C01EA
:101CCC009B019D149D18682E72080319722E1C0816
:101CDC000F39F3007308F4007408F101F1071B08C5
:101CEC00F001F00708002000A401A501201C822EA1
:101CFC002208A4072308A53D0130A235A30D890BAA
:101D0C00832E0130A136A00C890B882E21082004CB
:101D1C00031D7C2E2508A101A1072408A001A00702
:101D2C0008002000A80022000C14200028088600BF
:101D3C00870181080319BC2E200028088600870122
:101D4C0001080A3A0319B22E2808860087010108F7
:101D5C0084315F248E31B62E40308E3144268E3144
:101D6C0001302000A7002708A8079B2E22000C108A
:101D7C00080000302000AB000030AA000030A900A1
:101D8C000030A800201CD22E2408A8072508A93D45
:101D9C002608AA3D2708AB3D0130A435A50DA60D9C
:101DAC00A70D890BD32E0130A336A20CA10CA00CCD
:101DBC00890BDA2E2308220421042004031DC82ECB
:101DCC002B08A3002A08A2002908A1002808A000BB
:101DDC0008002000A501A6012108200403191F2FCB
:101DEC00A701A70AA11B042F0130A035A10D890B57
:101DFC00FB2E0130A4002408A707F82E0130A535CE
:101E0C00A60D890B052F21082302031D0F2F200877
:101E1C002202031C162F2008A2022108A33B251422
:101E2C000130A136A00C890B172F0130A702031D1E
:101E3C00042F2608A101A1072508A001A00708006E
:101E4C0020003008803AB50080303502031D302F59
:101E5C003C302F0203183B2F200030082F040319AD
:101E6C003B2F3C30AF000030B00064302000A600A7
:101E7C000030A7002F09B5003009B600B50A0319C8
:101E8C00B60A3508643EA0000030363DA100320889
:101E9C00A301A3073108A201A2078E3179268F3145
:101EAC0020002108A901A9072008A801A80787314B
:101EBC002A27200033082607AF003408273DB0003E
:101ECC0008002000A601A31F722FA209A309A20AD1
:101EDC000319A30AA601A60AA11F792FA009A1091B
:101EEC00A00A0319A10A210820040319A02FA50197
:101EFC00A50AA11B8B2F0130A035A10D890B822FB8
:101F0C000130A4002408A5077F2F21082302031DFC
:101F1C00912F20082202031C972F2008A2022108CF
:101F2C00A33B0130A136A00C890B982F0130A502E0
:101F3C00031D8B2F26080319A82FA209A309A20A97
:101F4C000319A30A2308A101A1072208A001A007D5
:101F5C00080020003008803AB30080303302031DA3
:101F6C00B92F1E302F020318CC2F20003008803AD6
:101F7C00B30080303302031DC52F06302F02031C23
:101F8C00CC2F1E302000AF000030B00020003208F3
:101F9C0031040319EC2F0530A6000030A7002F09DF
:101FAC00B3003009B400B30A0319B40A3308643E11
:101FBC00A8000030343DA90087312A2720002708CB
:101FCC00B001B0072608AF01AF0708000530A60026
:101FDC000030A7003008A901A9072F08A801A807FD
:101FEC0087312A2720002708B001B0072608AF0147
:041FFC00AF07080023
:020000040001F9
:04000E00E4E9FFFE24
:00000001FF
